{
  "_format": "hh-sol-artifact-1",
  "contractName": "Subjective",
  "sourceName": "contracts/Subjective.sol",
  "abi": [
    {
      "inputs": [],
      "stateMutability": "nonpayable",
      "type": "constructor"
    },
    {
      "anonymous": false,
      "inputs": [
        {
          "indexed": false,
          "internalType": "address",
          "name": "_owner",
          "type": "address"
        },
        {
          "indexed": false,
          "internalType": "address",
          "name": "_second_party",
          "type": "address"
        },
        {
          "indexed": false,
          "internalType": "address",
          "name": "_third_party",
          "type": "address"
        },
        {
          "indexed": false,
          "internalType": "uint256",
          "name": "_index",
          "type": "uint256"
        }
      ],
      "name": "Deal",
      "type": "event"
    },
    {
      "inputs": [
        {
          "internalType": "address payable",
          "name": "_second_party",
          "type": "address"
        },
        {
          "internalType": "address payable",
          "name": "_third_party",
          "type": "address"
        },
        {
          "internalType": "bool",
          "name": "_is_seller",
          "type": "bool"
        },
        {
          "internalType": "uint256",
          "name": "_max_price",
          "type": "uint256"
        },
        {
          "internalType": "int256",
          "name": "_min_price",
          "type": "int256"
        },
        {
          "internalType": "uint256",
          "name": "_quotient",
          "type": "uint256"
        },
        {
          "internalType": "uint256",
          "name": "_max_evaluation",
          "type": "uint256"
        },
        {
          "internalType": "uint256",
          "name": "_upfront_time",
          "type": "uint256"
        },
        {
          "internalType": "uint256",
          "name": "_evaluation_time",
          "type": "uint256"
        },
        {
          "internalType": "bool",
          "name": "_pay_upfront",
          "type": "bool"
        },
        {
          "internalType": "uint256",
          "name": "_evaluation",
          "type": "uint256"
        }
      ],
      "name": "createContract",
      "outputs": [],
      "stateMutability": "payable",
      "type": "function"
    },
    {
      "inputs": [
        {
          "internalType": "uint256",
          "name": "evaluation",
          "type": "uint256"
        },
        {
          "internalType": "bool",
          "name": "pay_upfront",
          "type": "bool"
        },
        {
          "internalType": "address",
          "name": "owner",
          "type": "address"
        },
        {
          "internalType": "uint256",
          "name": "index",
          "type": "uint256"
        }
      ],
      "name": "evaluate",
      "outputs": [],
      "stateMutability": "payable",
      "type": "function"
    },
    {
      "inputs": [
        {
          "internalType": "address",
          "name": "owner",
          "type": "address"
        },
        {
          "internalType": "uint256",
          "name": "index",
          "type": "uint256"
        }
      ],
      "name": "getContract",
      "outputs": [
        {
          "internalType": "bool",
          "name": "is_seller",
          "type": "bool"
        },
        {
          "internalType": "uint256",
          "name": "max_price",
          "type": "uint256"
        },
        {
          "internalType": "int256",
          "name": "min_price",
          "type": "int256"
        },
        {
          "internalType": "uint256",
          "name": "max_evaluation",
          "type": "uint256"
        },
        {
          "internalType": "uint256",
          "name": "quotient",
          "type": "uint256"
        }
      ],
      "stateMutability": "view",
      "type": "function"
    },
    {
      "inputs": [
        {
          "internalType": "address",
          "name": "owner",
          "type": "address"
        },
        {
          "internalType": "uint256",
          "name": "index",
          "type": "uint256"
        }
      ],
      "name": "upfront",
      "outputs": [],
      "stateMutability": "payable",
      "type": "function"
    },
    {
      "inputs": [
        {
          "internalType": "address",
          "name": "owner",
          "type": "address"
        },
        {
          "internalType": "uint256",
          "name": "index",
          "type": "uint256"
        }
      ],
      "name": "withdraw",
      "outputs": [],
      "stateMutability": "payable",
      "type": "function"
    }
  ],
  "bytecode": "0x608060405234801561001057600080fd5b50612fae806100206000396000f3fe60806040526004361061004a5760003560e01c80632855c91c1461004f578063548aa25d1461006b578063a42f576c14610087578063aad55726146100a3578063f3fef3a3146100e4575b600080fd5b6100696004803603810190610064919061201b565b610100565b005b61008560048036038101906100809190612107565b610502565b005b6100a1600480360381019061009c91906121fb565b610c86565b005b3480156100af57600080fd5b506100ca60048036038101906100c5919061201b565b61172d565b6040516100db95949392919061228f565b60405180910390f35b6100fe60048036038101906100f9919061201b565b611814565b005b81816000808373ffffffffffffffffffffffffffffffffffffffff1673ffffffffffffffffffffffffffffffffffffffff168152602001908152602001600020600082815260200190815260200160002060040160009054906101000a900473ffffffffffffffffffffffffffffffffffffffff1673ffffffffffffffffffffffffffffffffffffffff163373ffffffffffffffffffffffffffffffffffffffff16148061024b57506000808373ffffffffffffffffffffffffffffffffffffffff1673ffffffffffffffffffffffffffffffffffffffff168152602001908152602001600020600082815260200190815260200160002060080160019054906101000a900473ffffffffffffffffffffffffffffffffffffffff1673ffffffffffffffffffffffffffffffffffffffff163373ffffffffffffffffffffffffffffffffffffffff16145b61028a576040517f08c379a000000000000000000000000000000000000000000000000000000000815260040161028190612365565b60405180910390fd5b60008060008673ffffffffffffffffffffffffffffffffffffffff1673ffffffffffffffffffffffffffffffffffffffff1681526020019081526020016000206000858152602001908152602001600020905080600e015481600d01546102f191906123b4565b421115610333576040517f08c379a000000000000000000000000000000000000000000000000000000000815260040161032a90612456565b60405180910390fd5b8060040160009054906101000a900473ffffffffffffffffffffffffffffffffffffffff1673ffffffffffffffffffffffffffffffffffffffff163373ffffffffffffffffffffffffffffffffffffffff161415610445578060060160009054906101000a900460ff16156103dd576040517f08c379a00000000000000000000000000000000000000000000000000000000081526004016103d4906124c2565b60405180910390fd5b80600501543414610423576040517f08c379a000000000000000000000000000000000000000000000000000000000815260040161041a9061252e565b60405180910390fd5b60018160060160006101000a81548160ff0219169083151502179055506104fb565b80600a0160009054906101000a900460ff1615610497576040517f08c379a000000000000000000000000000000000000000000000000000000000815260040161048e9061259a565b60405180910390fd5b806009015434146104dd576040517f08c379a00000000000000000000000000000000000000000000000000000000081526004016104d490612606565b60405180910390fd5b600181600a0160006101000a81548160ff0219169083151502179055505b5050505050565b86881361050e57600080fd5b62278d00841115610554576040517f08c379a000000000000000000000000000000000000000000000000000000000815260040161054b90612698565b60405180910390fd5b6301e1338083111561059b576040517f08c379a00000000000000000000000000000000000000000000000000000000081526004016105929061272a565b60405180910390fd5b848111806105a65750815b6105e5576040517f08c379a00000000000000000000000000000000000000000000000000000000081526004016105dc906127bc565b60405180910390fd5b600080600089898c6105f7919061280b565b610601919061283c565b90508b15610614573392508d915061061b565b3391508d92505b600081121561062957600090505b6040518061026001604052808c81526020018b81526020018a81526020018981526020018373ffffffffffffffffffffffffffffffffffffffff1681526020018a8d610675919061280b565b8d61068091906123b4565b8152602001600015158152602001600081526020016000151581526020018473ffffffffffffffffffffffffffffffffffffffff168152602001828152602001600015158152602001600081526020016000151581526020018e73ffffffffffffffffffffffffffffffffffffffff168152602001428152602001888152602001878152602001600015158152506000803373ffffffffffffffffffffffffffffffffffffffff1673ffffffffffffffffffffffffffffffffffffffff1681526020019081526020016000206000600160003373ffffffffffffffffffffffffffffffffffffffff1673ffffffffffffffffffffffffffffffffffffffff1681526020019081526020016000205481526020019081526020016000206000820151816000015560208201518160010155604082015181600201556060820151816003015560808201518160040160006101000a81548173ffffffffffffffffffffffffffffffffffffffff021916908373ffffffffffffffffffffffffffffffffffffffff16021790555060a0820151816005015560c08201518160060160006101000a81548160ff02191690831515021790555060e082015181600701556101008201518160080160006101000a81548160ff0219169083151502179055506101208201518160080160016101000a81548173ffffffffffffffffffffffffffffffffffffffff021916908373ffffffffffffffffffffffffffffffffffffffff160217905550610140820151816009015561016082015181600a0160006101000a81548160ff02191690831515021790555061018082015181600b01556101a082015181600c0160006101000a81548160ff0219169083151502179055506101c082015181600c0160016101000a81548173ffffffffffffffffffffffffffffffffffffffff021916908373ffffffffffffffffffffffffffffffffffffffff1602179055506101e082015181600d015561020082015181600e015561022082015181600f01556102408201518160100160006101000a81548160ff0219169083151502179055509050507ffb331bf0a012da19de1d12a9bfbc6969753073888e657df0652ac2099b915dec338f8f600160003373ffffffffffffffffffffffffffffffffffffffff1673ffffffffffffffffffffffffffffffffffffffff16815260200190815260200160002054604051610a01949392919061293e565b60405180910390a18415610c215760008060003373ffffffffffffffffffffffffffffffffffffffff1673ffffffffffffffffffffffffffffffffffffffff1681526020019081526020016000206000600160003373ffffffffffffffffffffffffffffffffffffffff1673ffffffffffffffffffffffffffffffffffffffff16815260200190815260200160002054815260200190815260200160002090508273ffffffffffffffffffffffffffffffffffffffff163373ffffffffffffffffffffffffffffffffffffffff161415610b3d5780600501543414610b1b576040517f08c379a0000000000000000000000000000000000000000000000000000000008152600401610b129061252e565b60405180910390fd5b60018160060160006101000a81548160ff021916908315150217905550610ba1565b80600901543414610b83576040517f08c379a0000000000000000000000000000000000000000000000000000000008152600401610b7a90612606565b60405180910390fd5b600181600a0160006101000a81548160ff0219169083151502179055505b888511610c1f578273ffffffffffffffffffffffffffffffffffffffff163373ffffffffffffffffffffffffffffffffffffffff161415610bff57848160070181905550600115158160080160009054906101000a90505050610c1e565b8481600b01819055506001151581600c0160009054906101000a905050505b5b505b600160003373ffffffffffffffffffffffffffffffffffffffff1673ffffffffffffffffffffffffffffffffffffffff1681526020019081526020016000206000815480929190610c7190612983565b91905055505050505050505050505050505050565b81816000808373ffffffffffffffffffffffffffffffffffffffff1673ffffffffffffffffffffffffffffffffffffffff168152602001908152602001600020600082815260200190815260200160002060040160009054906101000a900473ffffffffffffffffffffffffffffffffffffffff1673ffffffffffffffffffffffffffffffffffffffff163373ffffffffffffffffffffffffffffffffffffffff161480610dd157506000808373ffffffffffffffffffffffffffffffffffffffff1673ffffffffffffffffffffffffffffffffffffffff168152602001908152602001600020600082815260200190815260200160002060080160019054906101000a900473ffffffffffffffffffffffffffffffffffffffff1673ffffffffffffffffffffffffffffffffffffffff163373ffffffffffffffffffffffffffffffffffffffff16145b610e10576040517f08c379a0000000000000000000000000000000000000000000000000000000008152600401610e0790612365565b60405180910390fd5b60008060008673ffffffffffffffffffffffffffffffffffffffff1673ffffffffffffffffffffffffffffffffffffffff1681526020019081526020016000206000858152602001908152602001600020905080600f015481600d0154610e7791906123b4565b421115610eb9576040517f08c379a0000000000000000000000000000000000000000000000000000000008152600401610eb090612a18565b60405180910390fd5b8060030154871115610f00576040517f08c379a0000000000000000000000000000000000000000000000000000000008152600401610ef790612aaa565b60405180910390fd5b85156111255780600e015481600d0154610f1a91906123b4565b421115610f5c576040517f08c379a0000000000000000000000000000000000000000000000000000000008152600401610f5390612456565b60405180910390fd5b8060040160009054906101000a900473ffffffffffffffffffffffffffffffffffffffff1673ffffffffffffffffffffffffffffffffffffffff163373ffffffffffffffffffffffffffffffffffffffff16141561106e578060060160009054906101000a900460ff1615611006576040517f08c379a0000000000000000000000000000000000000000000000000000000008152600401610ffd906124c2565b60405180910390fd5b8060050154341461104c576040517f08c379a00000000000000000000000000000000000000000000000000000000081526004016110439061252e565b60405180910390fd5b60018160060160006101000a81548160ff021916908315150217905550611124565b80600a0160009054906101000a900460ff16156110c0576040517f08c379a00000000000000000000000000000000000000000000000000000000081526004016110b79061259a565b60405180910390fd5b80600901543414611106576040517f08c379a00000000000000000000000000000000000000000000000000000000081526004016110fd90612606565b60405180910390fd5b600181600a0160006101000a81548160ff0219169083151502179055505b5b8060080160019054906101000a900473ffffffffffffffffffffffffffffffffffffffff1673ffffffffffffffffffffffffffffffffffffffff163373ffffffffffffffffffffffffffffffffffffffff16141561124b5780600a0160009054906101000a900460ff166111ce576040517f08c379a00000000000000000000000000000000000000000000000000000000081526004016111c5906127bc565b60405180910390fd5b80600c0160009054906101000a900460ff1615611220576040517f08c379a000000000000000000000000000000000000000000000000000000000815260040161121790612b16565b60405180910390fd5b8681600b0181905550600181600c0160006101000a81548160ff021916908315150217905550611315565b8060060160009054906101000a900460ff1661129c576040517f08c379a0000000000000000000000000000000000000000000000000000000008152600401611293906127bc565b60405180910390fd5b8060080160009054906101000a900460ff16156112ee576040517f08c379a00000000000000000000000000000000000000000000000000000000081526004016112e590612b82565b60405180910390fd5b86816007018190555060018160080160006101000a81548160ff0219169083151502179055505b80600c0160009054906101000a900460ff16801561134157508060080160009054906101000a900460ff165b1561172457600081600b01548260070154106114bd576002826003015483600b0154846007015461137291906123b4565b84600101548560000154611386919061283c565b6113909190612ba2565b61139a919061280b565b6113a4919061280b565b90508160080160019054906101000a900473ffffffffffffffffffffffffffffffffffffffff1673ffffffffffffffffffffffffffffffffffffffff166108fc83600101548385600901546113f991906123b4565b6114039190612bfc565b9081150290604051600060405180830381858888f1935050505015801561142e573d6000803e3d6000fd5b508160040160009054906101000a900473ffffffffffffffffffffffffffffffffffffffff1673ffffffffffffffffffffffffffffffffffffffff166108fc8360010154838560050154611482919061283c565b61148c919061283c565b9081150290604051600060405180830381858888f193505050501580156114b7573d6000803e3d6000fd5b50611705565b81600201548260030154836007015484600b01546114db9190612c90565b846001015485600001546114ef9190612c90565b6114f99190612ba2565b611503919061280b565b61150d919061280b565b90508160080160019054906101000a900473ffffffffffffffffffffffffffffffffffffffff1673ffffffffffffffffffffffffffffffffffffffff166108fc8360010154838560030154866007015487600101548860000154611571919061283c565b61157b9190612ba2565b611585919061280b565b866009015461159491906123b4565b61159e919061283c565b6115a89190612bfc565b9081150290604051600060405180830381858888f193505050501580156115d3573d6000803e3d6000fd5b508160040160009054906101000a900473ffffffffffffffffffffffffffffffffffffffff1673ffffffffffffffffffffffffffffffffffffffff166108fc836001015483856003015486600b015487600101548860000154611636919061283c565b6116409190612ba2565b61164a919061280b565b8660050154611659919061283c565b611663919061283c565b61166d919061283c565b9081150290604051600060405180830381858888f19350505050158015611698573d6000803e3d6000fd5b5081600c0160019054906101000a900473ffffffffffffffffffffffffffffffffffffffff1673ffffffffffffffffffffffffffffffffffffffff166108fc479081150290604051600060405180830381858888f19350505050158015611703573d6000803e3d6000fd5b505b60018260100160006101000a81548160ff021916908315150217905550505b50505050505050565b6000806000806000806000808973ffffffffffffffffffffffffffffffffffffffff1673ffffffffffffffffffffffffffffffffffffffff168152602001908152602001600020600088815260200190815260200160002090508060080160019054906101000a900473ffffffffffffffffffffffffffffffffffffffff1673ffffffffffffffffffffffffffffffffffffffff163373ffffffffffffffffffffffffffffffffffffffff1614156117e857600195506117ed565b600095505b80600001549450806001015493508060030154925080600201549150509295509295909350565b60008060008473ffffffffffffffffffffffffffffffffffffffff1673ffffffffffffffffffffffffffffffffffffffff168152602001908152602001600020600083815260200190815260200160002090508060100160009054906101000a900460ff16156118b9576040517f08c379a00000000000000000000000000000000000000000000000000000000081526004016118b090612d10565b60405180910390fd5b8060040160009054906101000a900473ffffffffffffffffffffffffffffffffffffffff1673ffffffffffffffffffffffffffffffffffffffff163373ffffffffffffffffffffffffffffffffffffffff16148061196657508060080160019054906101000a900473ffffffffffffffffffffffffffffffffffffffff1673ffffffffffffffffffffffffffffffffffffffff163373ffffffffffffffffffffffffffffffffffffffff16145b806119c0575080600c0160019054906101000a900473ffffffffffffffffffffffffffffffffffffffff1673ffffffffffffffffffffffffffffffffffffffff163373ffffffffffffffffffffffffffffffffffffffff16145b6119ff576040517f08c379a00000000000000000000000000000000000000000000000000000000081526004016119f690612da2565b60405180910390fd5b80600c0160019054906101000a900473ffffffffffffffffffffffffffffffffffffffff1673ffffffffffffffffffffffffffffffffffffffff163373ffffffffffffffffffffffffffffffffffffffff161415611b2a5762093a8081600f015482600d0154611a6f91906123b4565b611a7991906123b4565b4211611aba576040517f08c379a0000000000000000000000000000000000000000000000000000000008152600401611ab190612e34565b60405180910390fd5b80600c0160019054906101000a900473ffffffffffffffffffffffffffffffffffffffff1673ffffffffffffffffffffffffffffffffffffffff166108fc479081150290604051600060405180830381858888f19350505050158015611b24573d6000803e3d6000fd5b50611f60565b8060060160009054906101000a900460ff168015611b57575080600a0160009054906101000a900460ff16155b15611c255780600e015481600d0154611b7091906123b4565b4211611bb1576040517f08c379a0000000000000000000000000000000000000000000000000000000008152600401611ba890612ec6565b60405180910390fd5b8060040160009054906101000a900473ffffffffffffffffffffffffffffffffffffffff1673ffffffffffffffffffffffffffffffffffffffff166108fc82600501549081150290604051600060405180830381858888f19350505050158015611c1f573d6000803e3d6000fd5b50611f5f565b8060060160009054906101000a900460ff16158015611c52575080600a0160009054906101000a900460ff165b15611d205780600e015481600d0154611c6b91906123b4565b4211611cac576040517f08c379a0000000000000000000000000000000000000000000000000000000008152600401611ca390612ec6565b60405180910390fd5b8060080160019054906101000a900473ffffffffffffffffffffffffffffffffffffffff1673ffffffffffffffffffffffffffffffffffffffff166108fc82600901549081150290604051600060405180830381858888f19350505050158015611d1a573d6000803e3d6000fd5b50611f5e565b8060060160009054906101000a900460ff168015611d4c575080600a0160009054906101000a900460ff165b15611f5d5780600f015481600d0154611d6591906123b4565b4211611da6576040517f08c379a0000000000000000000000000000000000000000000000000000000008152600401611d9d90612f58565b60405180910390fd5b8060080160019054906101000a900473ffffffffffffffffffffffffffffffffffffffff1673ffffffffffffffffffffffffffffffffffffffff163373ffffffffffffffffffffffffffffffffffffffff161415611e81578060080160019054906101000a900473ffffffffffffffffffffffffffffffffffffffff1673ffffffffffffffffffffffffffffffffffffffff166108fc82600001548360090154611e5091906123b4565b9081150290604051600060405180830381858888f19350505050158015611e7b573d6000803e3d6000fd5b50611ef1565b8060040160009054906101000a900473ffffffffffffffffffffffffffffffffffffffff1673ffffffffffffffffffffffffffffffffffffffff166108fc82600501549081150290604051600060405180830381858888f19350505050158015611eef573d6000803e3d6000fd5b505b80600c0160019054906101000a900473ffffffffffffffffffffffffffffffffffffffff1673ffffffffffffffffffffffffffffffffffffffff166108fc479081150290604051600060405180830381858888f19350505050158015611f5b573d6000803e3d6000fd5b505b5b5b5b60018160100160006101000a81548160ff021916908315150217905550505050565b600080fd5b600073ffffffffffffffffffffffffffffffffffffffff82169050919050565b6000611fb282611f87565b9050919050565b611fc281611fa7565b8114611fcd57600080fd5b50565b600081359050611fdf81611fb9565b92915050565b6000819050919050565b611ff881611fe5565b811461200357600080fd5b50565b60008135905061201581611fef565b92915050565b6000806040838503121561203257612031611f82565b5b600061204085828601611fd0565b925050602061205185828601612006565b9150509250929050565b600061206682611f87565b9050919050565b6120768161205b565b811461208157600080fd5b50565b6000813590506120938161206d565b92915050565b60008115159050919050565b6120ae81612099565b81146120b957600080fd5b50565b6000813590506120cb816120a5565b92915050565b6000819050919050565b6120e4816120d1565b81146120ef57600080fd5b50565b600081359050612101816120db565b92915050565b60008060008060008060008060008060006101608c8e03121561212d5761212c611f82565b5b600061213b8e828f01612084565b9b5050602061214c8e828f01612084565b9a5050604061215d8e828f016120bc565b995050606061216e8e828f01612006565b985050608061217f8e828f016120f2565b97505060a06121908e828f01612006565b96505060c06121a18e828f01612006565b95505060e06121b28e828f01612006565b9450506101006121c48e828f01612006565b9350506101206121d68e828f016120bc565b9250506101406121e88e828f01612006565b9150509295989b509295989b9093969950565b6000806000806080858703121561221557612214611f82565b5b600061222387828801612006565b9450506020612234878288016120bc565b935050604061224587828801611fd0565b925050606061225687828801612006565b91505092959194509250565b61226b81612099565b82525050565b61227a81611fe5565b82525050565b612289816120d1565b82525050565b600060a0820190506122a46000830188612262565b6122b16020830187612271565b6122be6040830186612280565b6122cb6060830185612271565b6122d86080830184612271565b9695505050505050565b600082825260208201905092915050565b7f4f6e6c79207468652074776f207061727469657320696e766f6c76656420617260008201527f6520616c6c6f7765642e00000000000000000000000000000000000000000000602082015250565b600061234f602a836122e2565b915061235a826122f3565b604082019050919050565b6000602082019050818103600083015261237e81612342565b9050919050565b7f4e487b7100000000000000000000000000000000000000000000000000000000600052601160045260246000fd5b60006123bf82611fe5565b91506123ca83611fe5565b9250827fffffffffffffffffffffffffffffffffffffffffffffffffffffffffffffffff038211156123ff576123fe612385565b5b828201905092915050565b7f557066726f6e7420646561646c696e65207375727061737365642e0000000000600082015250565b6000612440601b836122e2565b915061244b8261240a565b602082019050919050565b6000602082019050818103600083015261246f81612433565b9050919050565b7f427579657220616c726561647920706179656420757066726f6e742e00000000600082015250565b60006124ac601c836122e2565b91506124b782612476565b602082019050919050565b600060208201905081810360008301526124db8161249f565b9050919050565b7f496e636f727265637420627579657220757066726f6e742076616c75652e0000600082015250565b6000612518601e836122e2565b9150612523826124e2565b602082019050919050565b600060208201905081810360008301526125478161250b565b9050919050565b7f53656c6c657220616c726561647920706179656420757066726f6e742e000000600082015250565b6000612584601d836122e2565b915061258f8261254e565b602082019050919050565b600060208201905081810360008301526125b381612577565b9050919050565b7f496e636f72726563742073656c6c657220757066726f6e742076616c75652e00600082015250565b60006125f0601f836122e2565b91506125fb826125ba565b602082019050919050565b6000602082019050818103600083015261261f816125e3565b9050919050565b7f54696d6520746f2070617920757066726f6e742076616c75652073686f756c6460008201527f20626520736d616c6c6572207468616e20333020646179732e00000000000000602082015250565b60006126826039836122e2565b915061268d82612626565b604082019050919050565b600060208201905081810360008301526126b181612675565b9050919050565b7f54696d6520746f206576616c756174652073686f756c6420626520736d616c6c60008201527f6572207468616e2033363520646179732e000000000000000000000000000000602082015250565b60006127146031836122e2565b915061271f826126b8565b604082019050919050565b6000602082019050818103600083015261274381612707565b9050919050565b7f557066726f6e74206d757374206265207061796564206265666f72652065766160008201527f6c756174696f6e2e000000000000000000000000000000000000000000000000602082015250565b60006127a66028836122e2565b91506127b18261274a565b604082019050919050565b600060208201905081810360008301526127d581612799565b9050919050565b7f4e487b7100000000000000000000000000000000000000000000000000000000600052601260045260246000fd5b600061281682611fe5565b915061282183611fe5565b925082612831576128306127dc565b5b828204905092915050565b6000612847826120d1565b9150612852836120d1565b9250827f80000000000000000000000000000000000000000000000000000000000000000182126000841215161561288d5761288c612385565b5b827f7fffffffffffffffffffffffffffffffffffffffffffffffffffffffffffffff0182136000841216156128c5576128c4612385565b5b828203905092915050565b6128d981611fa7565b82525050565b6000819050919050565b60006129046128ff6128fa84611f87565b6128df565b611f87565b9050919050565b6000612916826128e9565b9050919050565b60006129288261290b565b9050919050565b6129388161291d565b82525050565b600060808201905061295360008301876128d0565b612960602083018661292f565b61296d604083018561292f565b61297a6060830184612271565b95945050505050565b600061298e82611fe5565b91507fffffffffffffffffffffffffffffffffffffffffffffffffffffffffffffffff8214156129c1576129c0612385565b5b600182019050919050565b7f4576616c756174696f6e20646561646c696e65207375727061737365642e0000600082015250565b6000612a02601e836122e2565b9150612a0d826129cc565b602082019050919050565b60006020820190508181036000830152612a31816129f5565b9050919050565b7f4576616c756174696f6e20626967676572207468616e206d6178206576616c7560008201527f6174696f6e2e0000000000000000000000000000000000000000000000000000602082015250565b6000612a946026836122e2565b9150612a9f82612a38565b604082019050919050565b60006020820190508181036000830152612ac381612a87565b9050919050565b7f53656c6c657220616c7265616479206576616c75617465642e00000000000000600082015250565b6000612b006019836122e2565b9150612b0b82612aca565b602082019050919050565b60006020820190508181036000830152612b2f81612af3565b9050919050565b7f427579657220616c7265616479206576616c75617465642e0000000000000000600082015250565b6000612b6c6018836122e2565b9150612b7782612b36565b602082019050919050565b60006020820190508181036000830152612b9b81612b5f565b9050919050565b6000612bad82611fe5565b9150612bb883611fe5565b9250817fffffffffffffffffffffffffffffffffffffffffffffffffffffffffffffffff0483118215151615612bf157612bf0612385565b5b828202905092915050565b6000612c07826120d1565b9150612c12836120d1565b9250817f7fffffffffffffffffffffffffffffffffffffffffffffffffffffffffffffff03831360008312151615612c4d57612c4c612385565b5b817f8000000000000000000000000000000000000000000000000000000000000000038312600083121615612c8557612c84612385565b5b828201905092915050565b6000612c9b82611fe5565b9150612ca683611fe5565b925082821015612cb957612cb8612385565b5b828203905092915050565b7f4d6f6e657920616c72656164792077697468647261776e2e0000000000000000600082015250565b6000612cfa6018836122e2565b9150612d0582612cc4565b602082019050919050565b60006020820190508181036000830152612d2981612ced565b9050919050565b7f4f6e6c792074686520746872656520706172746965732061726520616c6c6f7760008201527f656420746f2077697468647261772e0000000000000000000000000000000000602082015250565b6000612d8c602f836122e2565b9150612d9782612d30565b604082019050919050565b60006020820190508181036000830152612dbb81612d7f565b9050919050565b7f5468697264207061727479206d757374207761697420756e74696c207468652060008201527f656e64206f6620746865206465616c2e00000000000000000000000000000000602082015250565b6000612e1e6030836122e2565b9150612e2982612dc2565b604082019050919050565b60006020820190508181036000830152612e4d81612e11565b9050919050565b7f557066726f6e742074696d65206973206e6f74207965742066696e697368656460008201527f2e00000000000000000000000000000000000000000000000000000000000000602082015250565b6000612eb06021836122e2565b9150612ebb82612e54565b604082019050919050565b60006020820190508181036000830152612edf81612ea3565b9050919050565b7f4576616c756174696f6e2074696d65206973206e6f74207965742066696e697360008201527f6865642e00000000000000000000000000000000000000000000000000000000602082015250565b6000612f426024836122e2565b9150612f4d82612ee6565b604082019050919050565b60006020820190508181036000830152612f7181612f35565b905091905056fea2646970667358221220b93547fbaf5b717cc0c889dd8d4ac79405675edecc2b94af82e4497f35e49ddc64736f6c63430008090033",
  "linkReferences": {},
  "deployedLinkReferences": {}
}